:100000000C9446000C9465000C9465000C946500FB
:100010000C9465000C9465000C9465000C946500CC
:100020000C9465000C9465000C9465000C946500BC
:100030000C9465000C94E3000C9465000C9465002E
:100040000C9465000C9465000C9465000C9465009C
:100050000C9465000C9465000C9465000C9465008C
:100060000C9465000C9465000C9465000C9465007C
:100070000C9465000C9465000C9465000C9465006C
:100080000C9465000C9465000C94650011241FBE4F
:10009000CFEFD0E4DEBFCDBF11E0A0E0B1E0EAE4F5
:1000A000FAE000E00BBF02C007900D92A631B10745
:1000B000D9F721E0A6E1B1E001C01D92AA34B20750
:1000C000E1F70E9489030C9423050C940000CF9360
:1000D000DF9300D000D0CDB7DEB769837A838B83FE
:1000E0009C8389819A81AB81BC818093000190932C
:1000F0000101A0930201B09303018091000190914E
:100100000101A0910201B091030180931701909326
:100110001801A0931901B0931A0100000F900F90DD
:100120000F900F90DF91CF910895CF93DF93CDB7CC
:10013000DEB781E890E02BE0FC01208388E890E0C6
:100140002DE730E0FC01318320838FE690E022E050
:10015000FC01208384E890E0FC01118210828091F0
:10016000000190910101A0910201B09103018093DF
:10017000170190931801A0931901B0931A018FE50C
:1001800090E02FE530E0F90120812068FC01208318
:100190000000DF91CF910895CF93DF93CDB7DEB705
:1001A00081E890E0FC0110820000DF91CF9108957A
:1001B000CF93DF93CDB7DEB781E0809316010000C7
:1001C000DF91CF9108951F920F9200905F000F92E0
:1001D000112400905B000F922F933F934F935F93F6
:1001E0006F937F938F939F93AF93BF93EF93FF93FF
:1001F000CF93DF93CDB7DEB78091170190911801AF
:10020000A0911901B0911A010197A109B109809338
:10021000170190931801A0931901B0931A018091CE
:10022000170190911801A0911901B0911A01892B21
:100230008A2B8B2B91F40E94D80080910001909121
:100240000101A0910201B0910301809317019093E5
:100250001801A0931901B0931A010000DF91CF910A
:10026000FF91EF91BF91AF919F918F917F916F918E
:100270005F914F913F912F910F9000925B000F90F3
:1002800000925F000F901F901895CF93DF9300D0DE
:100290001F92CDB7DEB789837B836A8389818A30D9
:1002A00031F48A819B81BC018DE00E94450180EC84
:1002B00090E0FC018081882F90E080729927892B43
:1002C000B1F386EC90E02981FC01208380E090E08E
:1002D0000F900F900F90DF91CF910895CF93DF9300
:1002E00000D000D0CDB7DEB78B836C831A82198221
:1002F00033C08C81882331F488E290E028E0FC014F
:10030000208308C08C81813029F488E290E020E2CB
:10031000FC01208388E290E028E230E0F9012081AE
:10032000422F2B81222F30E0098002C0359527957E
:100330000A94E2F72170242BFC01208388E290E0EC
:1003400028E230E0F90120812260FC0120838981CC
:100350009A8101969A83898389819A8108974CF2C0
:100360008C81882351F488E290E028E230E0F901A2
:1003700020812460FC0120830CC08C81813049F4F1
:1003800088E290E028E230E0F90120812061FC0160
:10039000208388E290E0FC01108200000F900F9013
:1003A0000F900F90DF91CF910895CF93DF93CDB74A
:1003B000DEB72C970FB6F894DEBF0FBECDBF6D83AE
:1003C0007E838F83988729873A874B875C878D81C7
:1003D0009E81AF81B88529853A854B855C85BC01B6
:1003E000CD010E940105DC01CB0189839A83AB8397
:1003F000BC8389819A81AB81BC81892B8A2B8B2B11
:1004000029F489859A85AB85BC8511C089859A8533
:10041000AB85BC858D839E83AF83B88789819A81A4
:10042000AB81BC8189879A87AB87BC87D0CFBC0161
:10043000CD012C960FB6F894DEBF0FBECDBFDF9175
:10044000CF910895CF93DF9300D0CDB7DEB79A83D5
:10045000898389819A818230910509F457C083305C
:10046000910534F4009781F0019709F44AC09CC0CB
:100470008430910509F454C0843091050CF44BC0CC
:10048000059709F452C090C080E290E0FC018081A1
:10049000882F90E081709927892B29F481E090E0E2
:1004A0009A83898384C080E290E0FC018081882F58
:1004B00090E084709927892B29F484E090E09A8356
:1004C000898375C080E290E0FC018081882F90E0F4
:1004D00082709927892B29F482E090E09A8389839E
:1004E00066C080E290E0FC018081882F90E08870F7
:1004F0009927892B09F05BC083E090E09A83898378
:1005000056C085E090E09A83898352C085E090E0F0
:100510009A8389834DC085E090E09A83898348C09F
:1005200085E090E09A83898343C082E290E0FC01F9
:100530008081882F90E081709927892B29F485E0AC
:1005400090E09A83898334C082E290E0FC0180814C
:10055000882F90E082709927892B29F485E090E01C
:100560009A83898325C082E290E0FC018081882FF4
:1005700090E084709927892B29F485E090E09A8394
:10058000898316C082E290E0FC018081882F90E090
:1005900088709927892B29F485E090E09A838983D4
:1005A00007C01A82198204C01A82198201C0000091
:1005B00089819A818230910599F08330910534F4D4
:1005C000009709F454C0019751F15CC08430910543
:1005D000B9F184309105A4F0059709F44AC052C0DE
:1005E00080911401803F09F446C080911401880F66
:1005F0008093140180911501880F809315013BC0F1
:10060000809114018F30C9F18091140186958093F7
:100610001401809115018695809315012EC080915B
:1006200012018A3F61F18091120186958068809362
:1006300012018091130186958068809313011FC079
:10064000809112018B3EE9F080911201882F90E099
:10065000880F991F81608093120180911301882F68
:1006600090E0880F991F8160809313010AC00000F9
:1006700009C0000007C0000005C0000003C0000062
:1006800001C0000089819A810F900F90DF91CF9176
:100690000895CF93DF9300D0CDB7DEB79A838983D7
:1006A00089819A81892B19F01A82198201C0000070
:1006B00089819A81892B09F01BC080911D018823B3
:1006C00049F48091120180931B0180911401809361
:1006D0001C0108C08091130180931B0180911501BA
:1006E00080931C0180911D01809580931D01000065
:1006F00080911C0160E00E946E0180911B0161E00D
:100700000E946E0189819A810F900F90DF91CF91A5
:1007100008950F931F93CF93DF93CDB7DEB72D9737
:100720000FB6F894DEBF0FBECDBF81E290E0FC01B2
:10073000108282E290E02FEFFC01208387E290E0BC
:100740002FEFFC01208388E290E0FC0110828AE216
:1007500090E02FEFFC0120838BE290E0FC011082FF
:100760008EE191E09B878A8789E291E09D878C8763
:1007700082E090E098878F838FEF89878A859B85B9
:100780002985FC0120832A853B8581E090E0A0E05B
:10079000B0E0F90181839283A383B4832A853B85EA
:1007A0008A859B85FC0181819281A381B481F901B5
:1007B00085839683A783B0878A859B8529E433E068
:1007C000FC01328721878C859D852985FC0120834A
:1007D0002C853D8584E690E0A0E0B0E0F9018183BE
:1007E0009283A383B4832C853D858C859D85FC01F4
:1007F00081819281A381B481F90185839683A78346
:10080000B0878C859D8522E232E0FC01328721870A
:100810008A859B85FC0181819281A381B4818B8330
:100820009C83AD83BE8381E090E09A83898325C059
:1008300089819A81880F991F9E012F5F3F4F820FF8
:10084000931F0996FC0180819181FC0121813281F5
:10085000438154818B819C81AD81BE81BC01CD01DE
:100860000E94D501DC01CB018B839C83AD83BE83C9
:1008700089819A8101969A83898329813A818F811E
:10088000988528173907A0F28B819C81AD81BE81A4
:10089000BC01CD010E9467000E9495001A82198256
:1008A000A0C089819A81880F991F9E012F5F3F4FB9
:1008B000820F931F0996FC0180819181FC012581A3
:1008C00036814781508589819A81880F991FBE01A1
:1008D0006F5F7F4F860F971F0996FC018081918182
:1008E000FC0181819281A381B481281739074A07CD
:1008F0005B0709F045C089819A81880F991F9E0185
:100900002F5F3F4F820F931F0996FC0100811181D9
:1009100089819A81880F991F9E012F5F3F4F820F17
:10092000931F0996FC0180819181FC01218532850C
:1009300089819A81880F991FAE014F5F5F4F840FA5
:10094000951F0996FC0180819181FC018081082E10
:10095000000C990BF9010995F801808389819A812E
:10096000880F991F9E012F5F3F4F820F931F09969B
:10097000FC0180819181FC0115821682178210860C
:1009800089819A81880F991F9E012F5F3F4F820FA7
:10099000931F0996FC016081718189819A81880F7A
:1009A000991F9E012F5F3F4F820F931F0996FC01F5
:1009B00080819181FC0125813681478150858B8121
:1009C0009C81AD81BE81820F931FA41FB51FFB01C7
:1009D00085839683A783B08789819A8101969A83BC
:1009E000898329813A818F8198852817390708F4EE
:1009F00058CF0000809116018823E1F31092160170
:100A00004DCFA1E21A2EAA1BBB1BFD010DC0AA1FD0
:100A1000BB1FEE1FFF1FA217B307E407F50720F067
:100A2000A21BB30BE40BF50B661F771F881F991FE2
:100A30001A9469F760957095809590959B01AC012B
:0A0A4000BD01CF010895F894FFCF27
:100A4A000100000000000002000000004501000053
:060A5A000000F5FB3C2446
:00000001FF
